{
  "abi": [
    {
      "inputs": [],
      "name": "atomicMatchSig",
      "outputs": [
        {
          "internalType": "string",
          "name": "",
          "type": "string"
        }
      ],
      "stateMutability": "view",
      "type": "function"
    }
  ],
  "bytecode": {
    "object": "0x6101e060405261012260808181529061029760a03980516100289160009160209091019061003b565b5034801561003557600080fd5b5061010f565b828054610047906100d4565b90600052602060002090601f01602090048101928261006957600085556100af565b82601f1061008257805160ff19168380011785556100af565b828001600101855582156100af579182015b828111156100af578251825591602001919060010190610094565b506100bb9291506100bf565b5090565b5b808211156100bb57600081556001016100c0565b600181811c908216806100e857607f821691505b6020821081141561010957634e487b7160e01b600052602260045260246000fd5b50919050565b6101798061011e6000396000f3fe608060405234801561001057600080fd5b506004361061002b5760003560e01c80632bcd710514610030575b600080fd5b61003861004e565b60405161004591906100dc565b60405180910390f35b6000805461005b90610131565b80601f016020809104026020016040519081016040528092919081815260200182805461008790610131565b80156100d45780601f106100a9576101008083540402835291602001916100d4565b820191906000526020600020905b8154815290600101906020018083116100b757829003601f168201915b505050505081565b600060208083528351808285015260005b81811015610109578581018301518582016040015282016100ed565b8181111561011b576000604083870101525b50601f01601f1916929092016040019392505050565b600181811c9082168061014557607f821691505b6020821081141561016657634e487b7160e01b600052602260045260246000fd5b5091905056fea164736f6c634300080a000a66756e6374696f6e2061746f6d69634d617463685f28616464726573735b31345d2061646472732c75696e745b31385d2075696e74732c75696e74385b385d206665654d6574686f647353696465734b696e6473486f77546f43616c6c732c62797465732063616c6c646174614275792c62797465732063616c6c6461746153656c6c2c6279746573207265706c6163656d656e745061747465726e4275792c6279746573207265706c6163656d656e745061747465726e53656c6c2c6279746573207374617469634578747261646174614275792c62797465732073746174696345787472616461746153656c6c2c75696e74385b325d2076732c627974657333325b355d207273734d6574616461746129207075626c69632070617961626c65",
    "linkReferences": {}
  }
}