{
  "abi": [
    {
      "inputs": [
        {
          "internalType": "address",
          "name": "_feeArbiter",
          "type": "address"
        }
      ],
      "stateMutability": "nonpayable",
      "type": "constructor"
    },
    {
      "inputs": [],
      "name": "Disabled",
      "type": "error"
    },
    {
      "anonymous": false,
      "inputs": [
        {
          "indexed": true,
          "internalType": "address",
          "name": "previousOwner",
          "type": "address"
        },
        {
          "indexed": true,
          "internalType": "address",
          "name": "newOwner",
          "type": "address"
        }
      ],
      "name": "OwnershipTransferred",
      "type": "event"
    },
    {
      "inputs": [
        {
          "internalType": "uint256",
          "name": "wyvernExchangeValue",
          "type": "uint256"
        },
        {
          "internalType": "bytes",
          "name": "wyvernExchangeData",
          "type": "bytes"
        }
      ],
      "name": "atomicMatch",
      "outputs": [],
      "stateMutability": "payable",
      "type": "function"
    },
    {
      "inputs": [],
      "name": "enabled",
      "outputs": [
        {
          "internalType": "bool",
          "name": "",
          "type": "bool"
        }
      ],
      "stateMutability": "view",
      "type": "function"
    },
    {
      "inputs": [],
      "name": "feeArbiter",
      "outputs": [
        {
          "internalType": "address",
          "name": "",
          "type": "address"
        }
      ],
      "stateMutability": "view",
      "type": "function"
    },
    {
      "inputs": [],
      "name": "name",
      "outputs": [
        {
          "internalType": "string",
          "name": "",
          "type": "string"
        }
      ],
      "stateMutability": "view",
      "type": "function"
    },
    {
      "inputs": [],
      "name": "owner",
      "outputs": [
        {
          "internalType": "address",
          "name": "",
          "type": "address"
        }
      ],
      "stateMutability": "view",
      "type": "function"
    },
    {
      "inputs": [],
      "name": "renounceOwnership",
      "outputs": [],
      "stateMutability": "nonpayable",
      "type": "function"
    },
    {
      "inputs": [
        {
          "internalType": "bool",
          "name": "_enabled",
          "type": "bool"
        }
      ],
      "name": "setEnabled",
      "outputs": [],
      "stateMutability": "nonpayable",
      "type": "function"
    },
    {
      "inputs": [
        {
          "internalType": "address",
          "name": "_feeArbiter",
          "type": "address"
        }
      ],
      "name": "setFeeArbiter",
      "outputs": [],
      "stateMutability": "nonpayable",
      "type": "function"
    },
    {
      "inputs": [
        {
          "internalType": "address",
          "name": "newOwner",
          "type": "address"
        }
      ],
      "name": "transferOwnership",
      "outputs": [],
      "stateMutability": "nonpayable",
      "type": "function"
    },
    {
      "inputs": [],
      "name": "wyvernExchange",
      "outputs": [
        {
          "internalType": "address",
          "name": "",
          "type": "address"
        }
      ],
      "stateMutability": "view",
      "type": "function"
    }
  ],
  "bytecode": {
    "object": "0x60c0604052601d60808190527f73756e73706f742e67672074656c6573636f706520286d616e75616c2900000060a090815261003e9160029190610126565b50600480546001600160a01b031916737be8076f4ea4a4ad08075c2508e481d6c946d12b17905534801561007157600080fd5b50604051610980380380610980833981016040819052610090916101bf565b610099336100d6565b60018055600380546001600160a01b039092166001600160a01b03199092169190911790556004805460ff60a01b1916600160a01b17905561022a565b600080546001600160a01b038381166001600160a01b0319831681178455604051919092169283917f8be0079c531659141344cd1fd0a4f28419497f9722a3daafe3b4186f6b6457e09190a35050565b828054610132906101ef565b90600052602060002090601f016020900481019282610154576000855561019a565b82601f1061016d57805160ff191683800117855561019a565b8280016001018555821561019a579182015b8281111561019a57825182559160200191906001019061017f565b506101a69291506101aa565b5090565b5b808211156101a657600081556001016101ab565b6000602082840312156101d157600080fd5b81516001600160a01b03811681146101e857600080fd5b9392505050565b600181811c9082168061020357607f821691505b6020821081141561022457634e487b7160e01b600052602260045260246000fd5b50919050565b610747806102396000396000f3fe6080604052600436106100915760003560e01c80638da5cb5b116100595780638da5cb5b14610149578063a3bb9a591461017b578063b82dbacb1461018e578063c9f0a2fa146101ae578063f2fde38b146101ce57600080fd5b806306fdde0314610096578063238dafe0146100c1578063328d8f72146100f25780634ed5f9db14610114578063715018a614610134575b600080fd5b3480156100a257600080fd5b506100ab6101ee565b6040516100b89190610558565b60405180910390f35b3480156100cd57600080fd5b506004546100e290600160a01b900460ff1681565b60405190151581526020016100b8565b3480156100fe57600080fd5b5061011261010d36600461058b565b61027c565b005b34801561012057600080fd5b5061011261012f3660046105b4565b6102cd565b34801561014057600080fd5b50610112610319565b34801561015557600080fd5b506000546001600160a01b03165b6040516001600160a01b0390911681526020016100b8565b6101126101893660046105f3565b61034f565b34801561019a57600080fd5b50600354610163906001600160a01b031681565b3480156101ba57600080fd5b50600454610163906001600160a01b031681565b3480156101da57600080fd5b506101126101e93660046105b4565b61043d565b600280546101fb906106ae565b80601f0160208091040260200160405190810160405280929190818152602001828054610227906106ae565b80156102745780601f1061024957610100808354040283529160200191610274565b820191906000526020600020905b81548152906001019060200180831161025757829003601f168201915b505050505081565b6000546001600160a01b031633146102af5760405162461bcd60e51b81526004016102a6906106e9565b60405180910390fd5b60048054911515600160a01b0260ff60a01b19909216919091179055565b6000546001600160a01b031633146102f75760405162461bcd60e51b81526004016102a6906106e9565b600380546001600160a01b0319166001600160a01b0392909216919091179055565b6000546001600160a01b031633146103435760405162461bcd60e51b81526004016102a6906106e9565b61034d60006104d8565b565b600260015414156103a25760405162461bcd60e51b815260206004820152601f60248201527f5265656e7472616e637947756172643a207265656e7472616e742063616c6c0060448201526064016102a6565b6002600155600454600160a01b900460ff166103d157604051633ac4266d60e11b815260040160405180910390fd5b6004546040516001600160a01b039091169083906103f090849061071e565b60006040518083038185875af1925050503d806000811461042d576040519150601f19603f3d011682016040523d82523d6000602084013e610432565b606091505b505060018055505050565b6000546001600160a01b031633146104675760405162461bcd60e51b81526004016102a6906106e9565b6001600160a01b0381166104cc5760405162461bcd60e51b815260206004820152602660248201527f4f776e61626c653a206e6577206f776e657220697320746865207a65726f206160448201526564647265737360d01b60648201526084016102a6565b6104d5816104d8565b50565b600080546001600160a01b038381166001600160a01b0319831681178455604051919092169283917f8be0079c531659141344cd1fd0a4f28419497f9722a3daafe3b4186f6b6457e09190a35050565b60005b8381101561054357818101518382015260200161052b565b83811115610552576000848401525b50505050565b6020815260008251806020840152610577816040850160208701610528565b601f01601f19169190910160400192915050565b60006020828403121561059d57600080fd5b813580151581146105ad57600080fd5b9392505050565b6000602082840312156105c657600080fd5b81356001600160a01b03811681146105ad57600080fd5b634e487b7160e01b600052604160045260246000fd5b6000806040838503121561060657600080fd5b82359150602083013567ffffffffffffffff8082111561062557600080fd5b818501915085601f83011261063957600080fd5b81358181111561064b5761064b6105dd565b604051601f8201601f19908116603f01168101908382118183101715610673576106736105dd565b8160405282815288602084870101111561068c57600080fd5b8260208601602083013760006020848301015280955050505050509250929050565b600181811c908216806106c257607f821691505b602082108114156106e357634e487b7160e01b600052602260045260246000fd5b50919050565b6020808252818101527f4f776e61626c653a2063616c6c6572206973206e6f7420746865206f776e6572604082015260600190565b60008251610730818460208701610528565b919091019291505056fea164736f6c634300080a000a",
    "linkReferences": {}
  }
}